S01B000054494E593230325F545642475F31315F4156522E7372656396
S113000051C263C262C261C260C25FC25EC25DC2EB
S11300105CC25BC25AC259C258C257C256C255C208
S113002054C253C252C251C250C24FC24EC24DC238
S11300304CC24BC23A046903D801D7003E006A9C03
S113004003D0013A0039003A0039003A0039003A45
S11300500039003A0039003A0039003A00AD003A5C
S11300600039003A00AD003A00AD003A00AD003A64
S113007000AD003A00AD003A00AD003A0039003A54
S113008000AD003A0039003A00AD003A0039003AB8
S11300900039003A00AD003A0039003A0039003A1C
S11300A00039003A00AD003A0039003A00AD003A98
S11300B000AD003A0039003A00AD003A00AD003A14
S11300C000AD003A00D60F9E03E6003A0098269E43
S11300D003E6003A0000006A1C00BD001D00510048
S11300E01D0051001D0051001D0051001D00510054
S11300F01D00BD001D00BD001D0051001D00BD0000
S11301001D0051001D0051001D0051001D00BD00C7
S11301101D0051001D003E121D00BD001D005100B8
S11301201D0051001D0051001D0051001D00BD00A7
S11301301D0051001D0051001D00BD001D00510097
S11301401D00BD001D00BD001D00BD001D005100AF
S11301501D00BD001D003E121D00BD001D0051000C
S11301601D0051001D0051001D0051001D005100D3
S11301701D00BD001D00BD001D0051001D00BD007F
S11301801D0051001D0051001D0051001D00BD0047
S11301901D0051001D003E121D00BD001D00510038
S11301A01D0051001D0051001D0051001D00BD0027
S11301B01D0051001D0051001D00BD001D00510017
S11301C01D00BD001D00BD001D00BD001D0051002F
S11301D01D00BD001D0000006E6601B3002C002D43
S11301E0002C0087002C002D002C002D002C002D4D
S11301F0002C002D002C002D002C002D002C002D97
S1130200002C002D002C002D002C002D002C002D86
S1130210002C0087002C002D002C002D002C002D1C
S1130220002C002D002C002D002C002D002C002D66
S1130230002C002D002C002D002C0087002C002DFC
S1130240002C002D002C002D002C002D002C002D46
S1130250002C002D002C002D002C002D002C0087DC
S1130260002C002D002C0087002C0087002C008718
S1130270002C0087002C002D002C002D002C008762
S1130280002C002D002C0087002C0087002C0087F8
S1130290002C0087002C002D002C0087002C002847
S11302A01E6601B4002C002D002C0087002C002DAC
S11302B0002C002D002C002D002C002D002C002DD6
S11302C0002C002D002C002D002C002D002C002DC6
S11302D0002C002D002C002D002C0087002C002D5C
S11302E0002C002D002C002D002C002D002C002DA6
S11302F0002C002D002C002D002C002D002C002D96
S1130300002C0087002C002D002C002D002C002D2B
S1130310002C002D002C002D002C002D002C002D75
S1130320002C002D002C0087002C002D002C0087B1
S1130330002C0087002C0087002C0087002C002D47
S1130340002C002D002C0087002C002D002C008791
S1130350002C0087002C0087002C0087002C002D27
S1130360002C0087002C000000479B019A013400F8
S1130370CD003400CD003400CD003400CD00340075
S11303806600340066003400CD003400660034009A
S1130390CD00340066003400CD0034006600340023
S11303A066003400660034006600340066003400E1
S11303B0CD003400CD00340066003400CD0034009C
S11303C066003400CD00340066003400CD003400F3
S11303D035039B019A013400CD003400CD00340074
S11303E0CD003400CD0034006600340066003400D3
S11303F0CD00340066003400CD00340066003400C3
S1130400CD00340066003400660034006600340019
S11304106600340066003400CD003400CD003400A2
S113042066003400CD00340066003400CD00340092
S113043066003400CD00340000006AF5003C007B07
S1130440003C003D003C007B003C003D003C007B48
S1130450003C003D003C003D003C007B003C003D76
S1130460003C003D003C003D003C003D00C70AF557
S1130470003C007B003C003D003C007B003C003D18
S1130480003C007B003C003D003C003D003C007B08
S1130490003C003D003C003D003C003D003C003D74
S11304A00000000011241FBECFEFCDBFDFE3DEBF8D
S11304B01FE3A0E8BFE3E0E6F6E002C005900D927A
S11304C0A238B107D9F766D0C9C09ACD88ED90E0BB
S11304D084BF9093600021E030E084BF20936100EA
S11304E00895E0E0F4E08081886080838081866CF8
S11304F0808308959C0110C0000000009F5F01C02C
S113050090E09830C8F300000000000000000000F4
S113051000000000215031092115310589F70895A3
S11305201F93CF93DF93C0E0D4E014E01E8388EBE5
S11305309BE0E0DF1D83DF91CF911F910895F0DFF1
S113054088E99AE3D7DFECDF88E99AE3D3DFE8DFD1
S113055088E99AE3CFDFE4DF08950F931F93CF93E5
S1130560DF938B01C0E0DAE021E1298329852E7F26
S1130570298721E02883BEDF88818E7F88831982C2
S113058088E080930604C801B5DFDF91CF911F9105
S11305900F910895EF92FF920F931F93CF93DF93E0
S11305A095DF9FDFE0E5F0E08081897F84608083D0
S11305B080818160808300E030C0B2DFE02FF0E012
S11305C0EE0FFF1FEC5CFF4F85919491EC01FC0151
S11305D0849190E08093280A9093290A10E0212FB7
S11305E030E0220F331F220F331FF9013196EC0F35
S11305F0FD1F85919491F9013396EC0FFD1FE59051
S1130600F490B701AADF1F5FEF2849F788E08093D1
S1130610060488EA91E66EDF0F5F8091803F081739
S113062008F4CBCF8CED9FEF65DF89DFE0E0FAE0E3
S113063080818E7F8083E0E0F4E084E0858388E03D
S1130640868388EE93E056DF889580E090E0DF9122
S1130650CF911F910F91FF90EF900895F894FFCFE1
S105066005008F
S9030000FC
