:100000001AC134C133C19FC131C130C12FC12EC10A
:100010002DC12CC12BC12AC129C128C127C126C18C
:1000200025C124C123C122C121C120C11FC11EC1BC
:100030001DC11CC18C01E3003A006D7401BF002E8C
:10004000002E002E002E002E0088002E0088002E8C
:10005000002E002E0088002E002E002E002E002ED6
:10006000002E002E0088002E002E002E002E002EC6
:100070000088002E002E002E0088002E002E002E5C
:100080000088002E002E002E002E002E0088002E4C
:10009000002E002E002E002E002E002E002E002EF0
:1000A0000088002E0088002E002E002E0088002ED2
:1000B000002E002E0088002E002E002E002E002E76
:1000C000002E002E0088002E002E002E002E002E66
:1000D000002E002E0088002E002E002E002E002E56
:1000E0000000006D7401BF002E002E002E002E00B7
:1000F0002E0088002E0088002E002E002E00880082
:100100002E002E002E002E002E002E002E00880025
:100110002E002E002E002E002E0088002E002E0015
:100120002E0088002E002E002E0088002E002E00AB
:100130002E002E002E0088002E002E002E002E00F5
:100140002E002E002E002E002E002E002E008800E5
:100150002E002E002E0088002E002E002E0088007B
:100160002E002E002E002E002E0088002E0088006B
:100170002E002E002E002E002E002E002E008800B5
:100180002E002E002E002E002E0000006D7401BFE8
:10019000002E002E002E002E002E0088002E00883B
:1001A000002E002E002E0088002E002E002E002E85
:1001B000002E002E002E0088002E002E002E002E75
:1001C000002E0088002E002E002E0088002E002E0B
:1001D000002E0088002E002E002E002E002E0088FB
:1001E000002E002E002E002E002E002E002E002E9F
:1001F000002E002E002E002E002E002E002E008835
:10020000002E002E002E0088002E002E002E002E24
:10021000002E0088002E002E002E002E002E002E14
:10022000002E002E002E0088002E002E002E002E04
:10023000002E0000000011241FBECFEFCDBFDFE372
:10024000DEBF1FE3A0E8BFE3E4E9F4E002C00590ED
:100250000D92A038B107D9F72FE3A0E8BFE301C0A2
:100260001D92A238B207E1F79ED012C1C9CE88ED27
:1002700090E084BF9093600021E030E084BF209341
:1002800061000895E0E0F4E08081846080838081F3
:100290008860808384E0858388E08683808B818B7F
:1002A000868B878B08959C0110C0000000009F5F23
:1002B00001C090E09830C8F300000000000000008A
:1002C000000000000000215031092115310589F797
:1002D00008951F93CF93DF93C0E0D4E014E01E8312
:1002E00088EB9BE0E0DF1D83DF91CF911F910895A4
:1002F000F0DF88E99AE3D7DFECDF88E99AE3D3DF20
:10030000E8DF88E99AE3CFDFE4DF08950F931F93D6
:10031000CF93DF938B01C0E0DAE021E129832985C7
:100320002E7F298721E02883BEDF88818E7F888306
:10033000198288E080930604C801B5DFDF91CF9170
:100340001F910F9108951F920F920FB60F921124D3
:100350008F939F938091080488232CF01092803F04
:100360001092813F16C081FD07C081E090E080932C
:10037000803F9093813F0DC086FD07C082E090E0F2
:100380008093803F9093813F04C01092803F1092F1
:10039000813F82EC809309049F918F910F900FBE53
:1003A0000F901F90189563DF6DDFE0E0F4E0818926
:1003B0008560818B86898560868B87898560878B40
:1003C0007894A0E5B0E08C91897F84608C938C91C7
:1003D00081608C93889581898A7F818B86898A7FC9
:1003E000868B87898A7F878B31C073DFE091803F5E
:1003F000F091813FEE0FFF1FEC5CFF4F85919491D0
:10040000EC01FC01849190E08093280A9093290AE2
:1004100010E0212F30E0220F331F220F331FF9018C
:100420003196EC0FFD1F85919491F9013396EC0FF5
:10043000FD1FE590F490B70169DF1F5FEF2849F7D2
:1004400088E08093060488E893E12DDFE0E0F4E0A3
:10045000808590E0809590959C0120783327908549
:10046000892F90E08095909582709927822B932B0D
:10047000208530E02095309520743327822B932BF4
:10048000892B09F0B2CF80E29EE40DDF31DF8DCF02
:04049000F894FFCF0E
:00000001FF
